S01700004763634170706C69636174696F6E312E737265635B
S11300000C942A000C9447000C9447000C9447006D
S11300100C9447000C9447000C9447000C94470040
S11300200C9447000C9447000C9447000C94470030
S11300300C9447000C9447000C9447000C94470020
S11300400C9447000C9447000C9447000C94470010
S11300500C94470011241FBECFE5D4E0DEBFCDBF12
S113006011E0A0E6B0E0ECE9F5E002C005900D92E5
S1130070A631B107D9F711E0A6E1B1E001C01D92A4
S1130080AD32B107E1F70E94B6020C94CC020C9495
S1130090000010921F0110921E01E0E2F1E080E0E6
S11300A090E05F9BFECF2CB12193019690931F01AA
S11300B080931E018C309105A1F710922C010895B4
S11300C08AB188618AB980B5866880BD83E389B9BD
S11300D0089588BBC098C198C29A8FEC97E00197A5
S11300E0F1F700C00000C2988FE99FE00197F1F793
S11300F000C00000089588BBC09AC198C29A8FECD2
S113010097E00197F1F700C00000C2988FE99FE0E3
S11301100197F1F700C000000895CF93C82F807FA6
S11301200E947B008C2F8295807F0E947B00CF9160
S11301300895CF93DF93EC018881882331F02196D1
S11301400E948D0089918823D9F7DF91CF9108957A
S1130150CF93C82F807F0E9469008C2F8295807F67
S11301600E946900CF9108958FEF87BB82E00E94BF
S1130170A80088E20E94A8008EE00E94A80086E001
S11301800E94A800089580E690E00E94990080EC07
S11301900E94A8008FE690E00E94990080911801C7
S11301A0805D0E948D000895FC018081882381F088
S11301B031968CB95D9BFECF8FEF90E7A2E0815022
S11301C09040A040E1F700C000008191882389F7A6
S11301D00895CF93DF930F92CDB7DEB78AE1898379
S11301E08BE790E00E94D4008FEF94E3ACE0815061
S11301F09040A040E1F700C0000086E890E00E9433
S1130200D4008FEF93EDA0E381509040A040E1F73C
S113021000C000008CE990E00E94D4008FEF91EEC2
S1130220A4E081509040A040E1F700C00000CE015E
S113023001960E94D4000F90DF91CF91089580E23F
S113024091E069E071E00E94C302282F392F211543
S1130250310509F09DC080911C0190911D0100970A
S113026009F04AC082EA90E00E94990080EC0E9462
S1130270A8008AEA90E00E9499008FE19EE4019729
S1130280F1F700C0000081E090E090931D0180939D
S11302901C0181E08BBB8FEF93EDA0E38150904074
S11302A0A040E1F700C000001BBA989BFECF81EB91
S11302B090E00E9499009899FECF8FEF94E3ACE010
S11302C081509040A040E1F700C0000082E08BBB69
S11302D08FEF93EDA0E381509040A040E1F700C080
S11302E000001BBA80911801909119010196909316
S11302F019018093180108958130910509F048C0CF
S113030088EB90E00E94990080EC0E94A8008AEAA1
S113031090E00E949900AFE1BEE41197F1F700C0AC
S1130320000010921D0110921C0184E08BBB8FEF22
S113033093EDA0E381509040A040E1F700C000009D
S11303401BBA999BFECF82EC90E00E949900999988
S1130350FECF8FEF94E3ACE081509040A040E1F7F2
S113036000C0000088E08BBB8FEF91E1AAE78150C9
S11303709040A040E1F700C000001BBA8091180132
S11303809091190101979093190180931801089590
S113039080E291E06CEF70E00E94C302282F392FB5
S11303A02115310509F09DC080911A0190911B011E
S11303B0009709F04AC088EC90E00E94990080EC14
S11303C00E94A80083ED90E00E949900AFE1BEE492
S11303D01197F1F700C0000081E090E090931B01B9
S11303E080931A0181E08BBB8FEF93EDA0E38150E2
S11303F09040A040E1F700C000001BBA989BFECFDC
S113040081EB90E00E9499009899FECF8FEF94E3DE
S1130410ACE081509040A040E1F700C0000082E0D1
S11304208BBB8FEF93EDA0E381509040A040E1F7A8
S113043000C000001BBA8091180190911901019627
S1130440909319018093180108958130910509F062
S113045048C08AED90E00E94990080EC0E94A800B8
S113046083ED90E00E949900AFE1BEE41197F1F7AB
S113047000C0000010921B0110921A0184E08BBB93
S11304808FEF93EDA0E381509040A040E1F700C0CE
S113049000001BBA999BFECF82EC90E00E94990069
S11304A09999FECF8FEF94E3ACE081509040A04047
S11304B0E1F700C0000088E08BBB8FEF93EDA0E371
S11304C081509040A040E1F700C000001BBA809129
S11304D018019091190101979093190180931801C3
S11304E0089581E00E94A80084EE90E00E949900A3
S11304F080EC0E94A80082EF90E00E9499008FEFA8
S113050099E6A8E181509040A040E1F700C00000C6
S11305108091160190911701019690931701809391
S113052016018330910509F4DF9A8FEF90E7A2E07A
S113053081509040A040E1F700C000008BB38BBB1A
S11305408FEF90E7A2E081509040A040E1F700C017
S113055000000E94E90008950E94C3000E9449001F
S113056081E00E94A8000E941F0108958FE88ABBC1
S113057014BA0E9460000E94B4000E94AC0281E0A0
S11305800E94A800FACFFB01DC018D910190801933
S10F05900110D9F3990B0895F894FFCFE3
S113059C73686F7720796F75722063617264005091
S11305AC65722E20436F756E743D0041542B434D80
S11305BC47463D310D0041542B434D47533D2239A1
S11305CC393131373930343237220D00414C4552F0
S11305DC540057454C434F4D4500534841524951E3
S11305EC0020454E545259005448414E4B20594F0B
S11305FC550020455849540057454C434F4D452010
S113060C433200414B53484159005468616E6B208E
S113061C796F75004143434553532044454E494536
S113062C440054525920414741494E003230303035
S113063C3243433034453832003230303032433672
S109064C4635343337008B
S9030000FC
